:100000005AC074C075C172C071C003C120C16EC036
:100010006DC0E4C06BC06AC069C068C067C066C01C
:1000200065C00600FF0901A101150026FF00750843
:1000300095080900B1007508950809009100C009EC
:1000400002220001010080320904000001030000C7
:1000500000092101010001221D000705810308009C
:100060000A1201100100000008C016DC05000101A1
:1000700002000128034800490044002F00520053A9
:1000800000320033003200200063006F006E007603
:10009000006500720074006500720016034D006573
:1000A000006C0063006800ED00610064006500738F
:1000B00000040309040011241FBECFE5D1E0DEBF18
:1000C000CDBF10E0A0E6B0E0EAE8F8E002C005909D
:1000D0000D92A436B107D9F720E0A4E6B0E001C044
:1000E0001D92A33CB207E1F71BD2CDC389CF88E6AE
:1000F00083BB8CE984BB83E083BFBA98C29A80E05B
:10010000B29B0DC008B600FEFBCF98B7916098BFB8
:100110008F5F8A30A9F71DC008B600FC03C0B29BF0
:10012000FBCF07C098B7916098BF8F5F8E31B9F74A
:1001300010C012BEB29B07C008B600FEFBCF88B746
:10014000816088BF089592B793BB892F8695890FE8
:1001500084BB089583B386BF83E083BFBA9AC29AF3
:100160000895982F969590689093660092E890BFB6
:1001700023E823BF12BE22E028BF29BF80FF03C0AF
:1001800082EC80BF089590BF0895D798DF9A1FBC76
:100190008BE88EBD80E28BB98CB91DBC1CBC84B3CE
:1001A00090E09BBD8ABD089589B7811116C08091EA
:1001B00060008F3F91F0E0916000F0E0E859FF4F60
:1001C0008081CFDF809160008F5F8F70909164009D
:1001D000891301C08FEF8093600008958F938FB7CC
:1001E0008F9380916600803041F480B7823011F4A3
:1001F000882789BF82E080BF08C088948795809354
:10020000660082E808F4806480BF8F918FBF8F9171
:1002100018958F938FB78F939F9394B58CB5891B47
:1002200020F484B3891B9CB5890F94B3935098171D
:1002300008F482508CBD82E08CB98BB980E8809341
:10024000860078949F918F918FBF8F9118958F938F
:100250008FB78F939F9399B397FB809186008038D7
:1002600011F493B39ABD879587F938F0809386008F
:100270009F918F918FBF8F91189590E29CB99BB9F8
:1002800094B39ABD7894EF93FF93AF9390916500E8
:10029000A09161009A1711F4DC9A0DC0E92FF0E0EB
:1002A000E757FF4F8083AF3F11F490936100939520
:1002B0009F7190936500AF91FF91EF91D9CFA82FD7
:1002C000B92F80E090E041E050EA609530E009C04D
:1002D0002D9182279795879510F084279527305E7A
:1002E000C8F36F5FA8F30895EADF8D939D93089597
:1002F000CF93CFB7CF93DF93C395C99BE9F7C99B42
:100300000BC0C99B09C0C99B07C0C99B05C0C99B3D
:1003100003C0C99B01C08BC06F93C0918500DD27CE
:10032000C355DF4F2F9365E5C99B03C02F916F9194
:10033000E6CF0F931F934F9320E040E15F9309B303
:10034000037001FB27F93F9350E03BE039C0137085
:1003500040642F77012F5F5F1EC0406819B3137090
:100360002F7752501FC0406409B32F770370D1F12B
:100370005F5F00C023C0406219B32F77137091F103
:100380005F5F00C025C003701027515012F45D5FFD
:100390000000115027952C3F19B3C8F613700127A0
:1003A000015027952C3FC8F64227499309B30370A3
:1003B00010274F73115027952C3FA8F64695469568
:1003C00019B3137079F00127015027952C3F98F647
:1003D0006B5A60F3315009B3B0F600C010E11ABF98
:1003E000002719C03B503195C31BD04010E11ABF04
:1003F0000881033C09F10B34F9F020918300198145
:10040000110F1213EDCF4A81441F093651F10D32FD
:1004100011F0013E29F70093AB003F915F914F919E
:100420001F910F912F916F91CAB7C4FD65CFDF91D6
:10043000CF91CFBFCF9118952091AB00222369F3C4
:100440001091A900112349F534304AF13093A900E5
:1004500020938400109185003BE0311B3093850090
:100460001EC00091A9000130C4F40AE54F70A9F440
:100470003091630034FD14C000936300C8E7D0E0FE
:1004800013C0052710E000C000000BBB1AC00527F1
:1004900010E0221F1DC010E021C04AE502C032ED6D
:1004A000432FC4E1D0E032E01AB31360D99A0BB302
:1004B0001ABB53E020E865E320FF05270BBB279517
:1004C00017951C3FF0F66695B8F7B1F720FF0527A2
:1004D0000BBB279517951C3FD0F62795179517FF4F
:1004E000052700001C3F0BBBB0F629913A9519F780
:1004F0000C7F1091AA00110FC651D0400BBB11F018
:100500001093830010E11ABF02601AB31C7F402FC2
:100510004C7F54E05A95F1F70BBB1ABB4BBB7DCF18
:10052000CF93DF931F92CDB7DEB780E18ABB2FE771
:1005300089EA93E0215080409040E1F700C000003C
:10054000D6DD7894909A8BB780618BBF1EDE02DE79
:10055000D19AEFEFF9E628E1E150F0402040E1F7D1
:1005600000C00000D1988CE0282E312C92E2492E58
:1005700090E0592E21E5622E20E0722E0BE910E06A
:1005800031EBE32E30E0F32E4FE3C42E40E0D42EC7
:1005900051E6A52E50E0B52E68E7862E60E0962E37
:1005A000809490948091A900835087FDCEC0909153
:1005B0008500F101E91BF109E355FF4F909184009B
:1005C0009D3209F09BC0883009F0BDC083EC809358
:1005D00078008AE580936300109267003081832F52
:1005E000807661F0803241F48181877F21E0813023
:1005F00009F020E0219570C020E076C09281109231
:1006000081008181811106C01092820081E890E012
:1006100022E05EC0853019F49093AA004BC086306A
:1006200009F042C08381813031F4B0928800A092F9
:10063000870022E135C0823031F4D0928800C09228
:10064000870022E22DC08330D1F4911106C0F092D0
:100650008800E092870024E023C0913031F41093A9
:1006600088000093870026E11BC09230C1F483E725
:1006700090E0909388008093870028E211C0813237
:1006800031F4709288006092870029E009C08232BC
:1006900031F450928800409287002DE101C020E0A3
:1006A00080E48093670018C0883079F0893031F495
:1006B0009093AC0081E890E020E00AC021E08A300D
:1006C00009F020E081E890E003C08CEA90E021E0AE
:1006D00090938800809387002F3F31F437FD268167
:1006E00080E88093670007C08781811104C08681FC
:1006F000821708F4282F2093620025C0809167009C
:1007000087FF21C0809164009191992381F020910D
:100710006000821302C0DC9A0AC0A82FB0E02191C9
:10072000A859BF4F2C938F5F8F709150EECF90914F
:1007300060009F3F21F4909164009093600080934B
:100740006400109262001092A9008091630084FFFF
:100750008EC0809162008F3F09F489C0482F893094
:1007600008F048E0841B809362008091780098E84C
:10077000892780937800442309F46BC02091670097
:1007800027FF40C0AAE7B0E091E0809161008F3F71
:10079000C9F09830B9F0E0916100F0E0E757FF4F01
:1007A00080818D93809161008F5F8F7120916500B2
:1007B0009F5F821304C08FEF8093610003C080931A
:1007C0006100E3CF809160008F3F99F0209160003D
:1007D00080916400821730F4809160002091640061
:1007E000815005C08091600020916400815F821B70
:1007F00001C080E1880F880F880F9150892B80936A
:10080000790027C0809187009091880026FF0FC053
:10081000A9E7B0E09401280F391F542F5A0FF901AE
:10082000EA0FFB1FE491ED935A13F9CF09C0E9E7F2
:10083000F0E0DC01242F2E0F3D9131932E13FCCFDD
:1008400001962FEF240F820F911D909388008093C3
:100850008700642F89E790E0498346DD49814C5F3A
:100860004C3019F08FEF809362004093630084E175
:1008700099B3937031F48150D9F71092AA00109275
:0A088000830092DC8FCEF894FFCFC6
:04088A00FFFFFF5A13
:00000001FF
